:020000041000EA
:10100000500500201D100010000000009D10001071
:101010000018040000010000000000801149124A7D
:10102000124B00F018F8124880471249124A134B2D
:1010300000F011F81249134A134B00F00CF8134951
:10104000134A0020521A02DD043A8850FCDC114891
:101050008047114880479B1A03DD043BC858D05095
:10106000FBDC7047E02A00100C000020500100203B
:10107000A1100010242C0010500500209C05002019
:10108000702C00109C0500209C0500209C05002071
:10109000D00500207D2900107D280010FEE700000B
:1010A00080B500AF01F09EFA01F0EAFABD4680BDBE
:1010B00080B500AF2A4B1A68FF231B0213401A0A9F
:1010C000284B1A60274B1B68002B37D0244B1B681A
:1010D000FF221A40244B1A60214BDB690322134084
:1010E0001A02214B1B681A431F4B1A601C4BDA690A
:1010F00080239B0013400ED11A4B1B689A021A4B97
:101100001B68D3181948191C00F002FC031C1A01B3
:10111000174B1A6021E000F02FF8031C9901114BC6
:101120001B689A02104B1B68D318081C191C00F08E
:10113000EFFB031C1A010E4B1A600EE0084BDA6934
:1011400080239B00134003D1094B0A4A1A6004E034
:1011500000F012F8021C064B1A60BD4680BDC04666
:10116000000301409C050020A005002000001BB7E3
:10117000FC3F0020006CDC0280B500AF014B181C66
:10118000BD4680BD002D310190B585B000AFF8603F
:101190007A600B23FB180A1C1A700B23FB181B78B0
:1011A0009B08DBB2181C0B23FB181B789B08DBB2D7
:1011B0001A1CFB6804329200D3580B22BA1812781A
:1011C00003210A40D200111CFC228A40D2431A405B
:1011D000111CFB68021D9200D150FB685B6F0B2253
:1011E000BA1812785200111C03228A40D2431A40C6
:1011F000FB685A670B23FB181B78DB08DBB2181C53
:101200000B23FB181B78DB08DBB21A1CFB681032BF
:101210009200D3580B22BA18127807210A40920084
:10122000111C04228A40D2431A40111CFB68021C84
:1012300010329200D1500B23FB181B78DB08DBB275
:10124000181C0B23FB181B78DB08DBB21A1CFB688D
:1012500010329200D2587B685B781C1C0B23FB1861
:101260001B7807210B409B009C40231C1A43111C38
:10127000FB68021C10329200D150FB68204A934256
:101280000BD1FB681B6E0B22BA181278012191401A
:101290000A1CD2431A40FB681A667B681B78DBB2D3
:1012A0005BB2002B07DA7B685A680B23FB181B78AC
:1012B0009A40FB685A600B23FB181B789B08DBB233
:1012C000181C0B23FB181B789B08DBB21A1CFB684D
:1012D00004329200D2587B681B781C1C0B23FB182D
:1012E0001B7803210B40DB009C40231C1A43111C7C
:1012F000FB68021D9200D150BD4605B090BDC046AE
:101300000002044080B500AF024BC3225A62BD46C2
:1013100080BDC0460000014080B500AF054BC02233
:101320005A62C046034B5B6A04221340FAD1BD46A1
:1013300080BDC0460000014080B586B000AF786037
:10134000FFF7EAFF7B689B79302B53D0FFF714FF40
:10135000021E494B9A4209D9484A48499023CB5A20
:101360009BB240210B4399B29023D152434A434947
:101370009023CB5A9BB29BB2191C322399430B1C6E
:1013800099B27B689B799BB20B439BB299B2902335
:10139000D1523B4B02229A623A4B3A4A52693A493D
:1013A0000A405A61394B7B6100E0C0467B69013BD2
:1013B0007B617B69002BF8D1324B324A5269C021E4
:1013C00089040A435A61C0462E4B5A6980235B0444
:1013D0001340F9D12E4B3B6100E0C0463B69013B15
:1013E0003B613B69002BF8D1254B1B6A022213405D
:1013F000CFD109E0214A21499023CB5A9BB2302119
:101400000B4399B29023D1521C4A7B68DB7999B285
:101410008C23D1527B68DB79002B09D11D4BFB60FB
:1014200000E0C046FB68013BFB60FB68002BF8D185
:10143000144B144AD26918490A40796889880A43CA
:10144000DA61104A0F4B1B68144919407B68DB684E
:1014500019437B689B680B431360FFF753FF7B685E
:101460009B781A1C7B681B88101C191C00F044F820
:10147000BD4606B080BDC046002D310100100140C0
:101480003800014000030140FFFFFFFD1A02000089
:101490007D0A0000A02E6300FFFDFFFFFFFFF0FFAD
:1014A00080B582B000AF7860FFF736FF084B084A7E
:1014B00011697A680A431A61C046054B1A6880238D
:1014C000DB051340F9D1FFF71DFFBD4602B080BD1B
:1014D0000003014080B582B000AF7860054B9B6887
:1014E0007A6813405A1E9341DBB2181CBD4602B005
:1014F00080BDC0460003014080B584B000AF786075
:101500003960FFF709FF274B1A68FF231B021340BE
:101510001B0AFB60234B234AD26903218A43111C17
:101520003A68120A0A43DA611E4B1E4A12681E49C3
:1015300011403A68FF2002400A431C490A431A60DE
:10154000C046184B1A688023DB051340F9D1FA68AE
:101550007B689A4206D8FA687B68101C191C00F058
:1015600053F805E0FA687B68101C191C00F022F89B
:101570000C4B0C4A12680E4911407A6812020A4359
:101580000A490A431A60C046064B1A688023DB05E5
:101590001340F9D1FFF7B6FEFFF78AFDBD4604B050
:1015A00080BDC0460003014000FF0FC00000F03FB7
:1015B000FF000FC080B582B000AF7860396014E0E2
:1015C0007B689B087B600D4B0C4A12680C491140EC
:1015D0007A6812020A430B490A431A60C046074B55
:1015E0001A688023DB051340F9D13B689A007B68B9
:1015F0009A42E5D3BD4602B080BDC046000301401B
:10160000FF000FC00000F03F80B582B000AF7860EF
:10161000396019E07B68002B01D101237B607B6876
:101620009B007B600C4B0C4A12680C4911407A6895
:1016300012020A430A490A431A60C046064B1A6856
:101640008023DB051340F9D17B689A003B689A42FE
:10165000E0D3BD4602B080BD00030140FF000FC0D3
:101660000000F03F80B500AF024B1B68181CBD4660
:1016700080BDC046FC3F002080B582B000AF021C98
:10168000FB1D1A703B1D0A1C1A803B1D3A1D128857
:1016900003210A401A80FB1D1B780F2B13D8184B0F
:1016A000174AD26EF91D09784900081C03218140B0
:1016B000C9430A40391D0988F81D0078400081405F
:1016C0000A43DA6618E0FB1DFA1D12780F210A4062
:1016D0001A700B4B0A4A126FF91D09784900081C51
:1016E00003218140C9430A40391D0988F81D00784B
:1016F000400081400A431A67BD4602B080BDC04623
:101700000000014080B582B000AF78607B68802225
:101710005200DA60BD4602B080BDC04680B582B0DE
:1017200000AF78607B68094A934203D10420FFF739
:10173000B7FE08E07B68064A934204D180239B02EF
:10174000181CFFF7ADFEBD4602B080BD0000044886
:101750000040044880B582B000AF78607B68181CF8
:10176000FFF7DCFFBD4602B080BDC04680B584B047
:1017700000AF78600A1CFB1C1A707B68181CFFF70E
:10178000E9FF7B68181CFFF7BDFF7B681B68FB60E7
:10179000FB68074A1340FB60FB1C1B789B03FA683D
:1017A0001343FB607B68FA681A60BD4604B080BDD5
:1017B000FF3FFFFF80B582B000AF786039603B68C3
:1017C0001A687B685A613B685B799B06DB0FDBB26A
:1017D0001A057B685A603B681B791B071B0FDBB23D
:1017E0001A1C7B685A623B685B791B071B0FDBB2D4
:1017F0001A1C7B681A623B685B79DB06DB0FDBB285
:101800001A1C7B689A613B681B791B061B0FDBB2B5
:101810001A1C7B68DA62BD4602B080BD80B586B016
:1018200000AF7860081C111CFB1C021C1A70BB1C4A
:101830000A1C1A70FB1C1B780B2B20D89A00204B1B
:10184000D3181B689F4603233B6100237B611BE089
:101850000C233B6102237B6116E0C0239B003B61AC
:1018600008237B6110E0C0231B013B610A237B61DD
:101870000AE0C0239B013B610C237B6104E0002351
:101880003B6100237B61C0463B69002B14D07B6821
:10189000A8229B58FB603B69DA43FB681340FB605E
:1018A000BB1C1A787B699A40131CFA681343FB60CF
:1018B0007B68A821FA685A50BD4606B080BDC04674
:1018C000C829001080B582B000AF7860081C111CD8
:1018D000FB1C021C1A70BB1C0A1C1A707B685B6F15
:1018E000FA1C12785200111C03228A40D2431A407B
:1018F0007B685A677B685A6FBB1C1B78F91C097898
:1019000049008B401A437B685A67BD4602B080BDD0
:1019100080B588B000AF78603960EFF310837B61E9
:101920007B693B6172B63B69FB610C4B04225A63D5
:101930000A4B7A681A62094B3A685A62074B9B6AEB
:10194000BB61FB69FB60FB68BB60BB6883F310880D
:10195000BB69181CBD4608B080BDC04600000340EE
:1019600080B588B000AF78603960EFF310837B6199
:101970007B693B6172B63B69FB610C4B00225A6389
:101980000A4B7A681A62094B3A685A62074B9B6A9B
:10199000BB61FB69FB60FB68BB60BB6883F31088BD
:1019A000BB69181CBD4608B080BDC046000003409E
:1019B00080B582B000AF78607B689B6BDBB27F2222
:1019C0009343DBB2181CBD4602B080BD80B582B027
:1019D00000AF786039607B683A68DA64BD4602B06F
:1019E00080BDC04680B586B000AFF860B960FB1D11
:1019F0001A7010237B61FB68181C00F08FF8BB681D
:101A00001B7A002B02D0BB681B7A7B61FB1D1B7805
:101A1000002B16D0BB681B79002B09D0BB681B6854
:101A2000191C7B69FA68101C1A1C00F02DF908E0DB
:101A3000BB681A68F9687B69081C111C1A1C00F045
:101A4000A9F8BB68DB79013B5A007B695B0801336D
:101A50001B021343194A1A43FB68DA63BB685B79BC
:101A6000013B1B06812252001A43FB685A63BB6884
:101A70009B79002B09D0FB685A6BBB689B79013BB3
:101A80001B041A43FB685A6308E0FB685A6BBB6887
:101A90005B79013B1B041A43FB685A63FB68A02275
:101AA000D2009A63FB6801225242DA64BB685B8908
:101AB0001A1CFB681A64BD4606B080BD0100030015
:101AC00080B582B000AF78600A1CBB1C1A807A68AF
:101AD00084235B00D258E023DB04134014D1C046BA
:101AE0007B68181CFFF764FF031E802BF8D07A6810
:101AF00080239B01101C191CFFF768FFBB1C1A8870
:101B00007B6880215A5005E0BB1C19887A68C02385
:101B10005B00D150BD4602B080BDC04680B582B0EA
:101B200000AF78607A689023DB059A4203D07B6827
:101B3000134A934204D1134B181C00F0ABF90BE08D
:101B40007B68114A934203D07B68104A934203D1C9
:101B50000F4B181C00F09EF97B680322DA60C04628
:101B60007B68DB6801221340FAD07B681B6C0F2274
:101B700093431A1C7B681A64BD4602B080BDC04600
:101B800000020048080000480040004800420048A9
:101B90000840004880B58EB000AFF860B9607A6048
:101BA000BB68632B60D97B68002B5DD0FFF75AFDC3
:101BB000031C181C6421FFF7ABFE031C3B62BB68CF
:101BC000181C6421FFF7A4FE031CBB608023DB000C
:101BD000FB620123BB622A4B7B628023DB003B63F9
:101BE00025E03B6A3A6B5A43111CBB687A68534341
:101BF000081C191CFFF78CFE031CFB61FB699B0A88
:101C0000BB61FB699B059B0D7B61BA698023DB008F
:101C10009A4209D87A697B6A9A4205D27B697B62CB
:101C2000BB69BB623B6BFB623B6B013B3B633B6B4A
:101C3000002BD6D1FB6A013B802212021A43FB68BB
:101C40001A61FB685B690F4A1A407B68013B9B0283
:101C50001A43BB6A013B1B041A43FB685A613723D2
:101C6000FB1800221A7003E03723FB1801221A70B8
:101C70003723FB181B78181CBD460EB080BDC0462C
:101C8000FF030000EF8000FC80B58CB000AFF8606F
:101C9000B9607A60FFF7E6FC031C3B62BB687A68B8
:101CA0005343FB610123FB623A6AFB699A4262DD9E
:101CB000386AF969FFF754FE031CBB620FE0FB6A48
:101CC0000133FB62BB687A6853431A1CFB6A5343B7
:101CD000FB61386AF969FFF743FE031CBB62BB6A0C
:101CE0002A4A9342EBD8396A7B68BA6A5343FA6A44
:101CF0005343081C191CFFF70BFE031CBB61396A18
:101D0000BB6A01337A685343FA6A5343081C191CAF
:101D1000FFF7FEFD031C7B61BA687B69D31AD917F4
:101D20005A184A40B968BB69CB1AD9175B184B409F
:101D30009A4202DABB6A0133BB62BB6A8022D200DC
:101D4000D31ABB62BB6A8022D2011A43FB681A61B4
:101D5000FB685B690E4A1A407B68013B9B021A4391
:101D6000FB6A013B1B041A43FB685A612723FB18DB
:101D700000221A7003E02723FB1801221A70272380
:101D8000FB181B78181CBD460CB080BDFE0300007C
:101D9000EF8000FC80B584B000AFF860B9603B60B4
:101DA000FB1D1A70FA6884235B00D3580E4A134057
:101DB000191CFA6884235B00D150FA6884235B0005
:101DC000D3580A4A1A403B681902BB681943FB1DE5
:101DD0001B781B060B431A43111CFA6884235B0013
:101DE000D150BD4604B080BDFFFFFFF8C0C0FFF872
:101DF00080B584B000AFF860B9603B60FB1D1A701D
:101E0000FA6886235B00D358104A1340191CFA68FD
:101E100086235B00D150FA6886235B00D3580C4AB6
:101E20001A403B681902BB681943FB1D1B781B064F
:101E30000B431343802252051A43111CFA68862370
:101E40005B00D150BD4604B080BDC046FFFFFFF827
:101E5000C0C0FFEF80B584B000AFF8607A600B239C
:101E6000FB180A1C1A70FB689B690B22BA181278BF
:101E7000072191400A1CD2431A400B23FB181B7800
:101E8000796899400B1C1A43FB689A61BD4604B0FF
:101E900080BDC04680B582B000AF78607B68104AD4
:101EA000934209D10820FFF7FBFAC0460820FFF74C
:101EB00011FB031EFAD110E07B680A4A93420CD151
:101EC0008023DB02181CFFF7EBFAC0468023DB02FD
:101ED000181CFFF7FFFA031EF8D1BD4602B080BD03
:101EE000080000480840004880B500AFBD4680BDEE
:101EF00080B582B000AF78607A688C235B00802167
:101F00000902D150BD4602B080BDC04680B582B046
:101F100000AF78607A688A235B00D25880235B0127
:101F200013405A1E9341DBB2181CBD4602B080BD5F
:101F300080B582B000AF78607A688A235B00D2589F
:101F400080231B0113405A1E9341DBB2181CBD466F
:101F500002B080BD90B585B000AF78600F23FB184C
:101F600000221A707B685B685B680F22BC18984778
:101F7000031C23700F23FB181B78181CBD4605B0EB
:101F800090BDC04690B587B000AFF860B9607A6088
:101F90001723FB1804221A70FB685B6821229B5CE4
:101FA000022B00D00CE01723FC18F968BA687B6894
:101FB000081C111C1A1C00F00BF8031C2370C046EF
:101FC0001723FB181B78181CBD4607B090BDC046F0
:101FD00080B586B000AFF860B9607A601723FB184F
:101FE00003221A70BB68002B5CD07B68002B59D091
:101FF0001723FB1802221A70FB689B681B7EDBB25A
:1020000001225340DBB2002B4CD0FB689B680122BD
:102010001A76FB685B6823229B5C002B04D0FB686C
:102020001B68181CFFF764FF00233B611BE0FB6883
:102030005B6823229B5C002B07D0C046FB681B68B3
:10204000181CFFF763FF031EF8D1FB681968BA6814
:102050003B69D3181B789BB2081C191CFFF730FD95
:102060003B6901333B613A697B689A42DFD3FB6885
:102070005B6823229B5C002B0CD0C046FB681B686E
:10208000181CFFF755FF031C1A1C01235340DBB239
:10209000002BF3D11723FB1800221A70FB689B68F2
:1020A00000221A761723FB181B78181CBD4606B0B1
:1020B00080BDC04680B582B000AF7860081C111C9E
:1020C000FB1C021C1A70BB1C0A1C1A70FB1C187823
:1020D000FB1C1B787A6806339B00D3185B680722C9
:1020E00093431A1CBB1C1B781A437968831D9B0001
:1020F000CB185A60BD4602B080BDC04680B582B0E4
:1021000000AF786039607A683B68101C191C0122A6
:10211000FFF768FCBD4602B080BDC04680B582B006
:1021200000AF78607B681B6C0F22934302221A4336
:102130007B681A64BD4602B080BDC04680B582B0DF
:1021400000AFFB1D00221A70214A224B101C0321F4
:102150001A1CFFF719F8204A204B101C191CFFF716
:10216000CDFF1D4B181C00210022FFF7A3FF1A4BC7
:10217000181C03210022FFF79DFF174B181C052197
:102180000022FFF797FF144B181C10210422012393
:10219000FFF700FE104B181C002104220F23FFF74D
:1021A00027FE0D4B181CFFF7B9FF094A0C4B101CFA
:1021B00002211A1CFEF7E8FF074B181C1021002211
:1021C000FFF748FEFB1D1B78181CBD4602B080BD02
:1021D00000010440402A001000020048F8290010C5
:1021E000042A001080B582B000AF78600A1CFB1C86
:1021F0001A70FB1C1B7801229A407B68DA60BD468E
:1022000002B080BD80B582B000AF78607B680122EB
:10221000DA60BD4602B080BD80B582B000AF7860A4
:102220007B6802221A61BD4602B080BD80B582B0D3
:1022300000AF78600A1CBB1C1A80BB1C1A887B6824
:102240005A63BD4602B080BD80B582B000AF7860F1
:102250000A1CBB1C1A80BB1C1A887B68DA63BD464B
:1022600002B080BD80B582B000AF786039607B6815
:102270003A681A61BD4602B080BDC04680B582B0E2
:1022800000AF78600A1CFB1C1A707B68A4229A5865
:10229000FB1C1B78012199400B1C1A437B68A4216D
:1022A0005A50BD4602B080BD90B585B000AF786091
:1022B0000F23FB1800221A707B6826229B5C0122E8
:1022C0005340DBB2002B0CD07B6821229B5C002B9F
:1022D00007D10F23FC187B68181C00F009F8031CB9
:1022E00023700F23FB181B78181CBD4605B090BD4A
:1022F00090B585B000AF78607B681B690F22BC1871
:10230000181C00F02FF9031C23707B681B699A6866
:102310007B681B7E101C191CFFF764FF7B685A69E1
:102320007B68DB69101C191CFFF744FA7B68181CDA
:1023300000F030F87B6825229B5C002B0FD07B6877
:1023400059697B6820229B5C081C00211A1CFFF73E
:1023500065FA7B685B69181C0021FFF78FFF7B68BB
:102360005B69181CFFF758FF7B68262201219954EE
:102370007B6824229B5C002B04D07B685B69181C63
:10238000FFF740FF0F23FB181B78181CBD4605B054
:1023900090BDC04680B582B000AF78607B685A6956
:1023A0007B685B8C101C191CFFF740FF7B685B6926
:1023B000181C0021FFF748FF7B681B699A687B683F
:1023C000DB68101C191CFFF74DFFBD4602B080BD35
:1023D00080B582B000AF021CFB1D1A70FB1D1B787C
:1023E0007F2B09D8064BFA1D1278111C1F220A40B8
:1023F000012191400A1C1A60BD4602B080BDC04652
:1024000000E100E0B0B582B000AF021C3960FB1DF6
:102410001A70FB1D1B787F2B27D82D4CFB1D1B78BA
:102420005BB29B082A49FA1D127852B29208C03258
:1024300092005258F91D0978081C03210140C90077
:10244000081CFF218140C94311403A689201FF20D6
:102450000240F81D0078051C03202840C00082407F
:102460000A43C0339B001A512EE01A4CFB1D1B7807
:102470001A1C0F231340083B9908164AFB1D1B78B2
:10248000181C0F230340083B9B0806339B00D318FE
:102490005B68FA1D1278101C03220240D200101C47
:1024A000FF228240D2431A403B689B01FF20034039
:1024B000F81D0078051C03202840C00083401A4303
:1024C0008B1D9B00E3185A60BD4602B0B0BDC046EC
:1024D00000E100E000ED00E080B582B000AF786080
:1024E0007B689B785BB2181CFFF772FFBD4602B099
:1024F00080BDC04680B582B000AF78607B689A78B6
:102500007B68DB78191C53B2181CFFF77BFF7B68D4
:102510009B78DAB27B689B785BB21B0299B27B68CE
:102520001B889BB20B439BB29BB2101C191CFFF77C
:10253000A3F87B681B79002B03D07B68181CFFF77E
:10254000CBFF0023181CBD4602B080BD80B582B011
:1025500000AF78607B6880225200DA60BD4602B02E
:1025600080BDC04680B582B000AF78607B685B7B81
:1025700001225340DBB2002B0FD07B689A687B6846
:102580001B7B101C191CFFF7F1F87B689B68181C5B
:10259000FFF7DCFF7B6801225A730023181CBD463D
:1025A00002B080BD80B582B000AF78607B681968EA
:1025B0007B681A7B7B680433081C111C1A1CFEF70D
:1025C000E3FD7B6819687B681A7B7B685B7B081C72
:1025D000111C1A1CFFF776F90023181CBD4602B027
:1025E00080BDC04680B500AF034B034A926E012107
:1025F0008A439A66BD4680BD0000014080B584B024
:1026000000AF78600F23FB1800221A700E23FB180E
:1026100000221A700D23FB1800221A700C23FB18DD
:1026200000221A700B23FB1800221A707B681B789B
:1026300001225340DBB2002B1BD00E23FA180D23CE
:10264000FB1812781B781343DAB20C23FB181B78A3
:102650001343D9B20F23FB180B22BA1812780A437E
:102660001A700F23FB181B78002B02D17B68012204
:102670001A700F23FB181B78181CBD4604B080BDD0
:1026800090B585B000AF3B1C054A13CA13C312684E
:102690001A603B1C181CFEF74FFEBD4605B090BDEE
:1026A000D02A001090B583B000AFFB1D00221A7035
:1026B000FC1D424B181CFFF7A1FF031C2370FB1DE0
:1026C0001B78002B06D1FC1D3D4B181CFFF742FC6C
:1026D000031C2370FB1D1B78002B06D1FC1D394BFE
:1026E000181CFFF75FFF031C2370FB1D1B78002BDA
:1026F00006D1FC1D344B181CFFF754FF031C23703C
:10270000FB1D1B78002B06D1FC1D304B181CFFF75E
:1027100049FF031C2370FB1D1B78002B06D1FC1DF9
:102720002B4B181CFFF73EFF031C2370FB1D1B786F
:10273000002B06D1FC1D274B181CFFF733FF031C91
:102740002370FB1D1B78002B06D1FC1D224B181C8F
:10275000FFF728FF031C2370FB1D1B78002B06D1FD
:10276000FC1D1E4B181CFFF71DFF031C2370FB1DD7
:102770001B78002B06D1FC1D194B181CFFF712FF0C
:10278000031C2370FB1D1B78002B06D1FC1D154B71
:10279000181CFFF7AFFE031C2370FB1D1B78002BDA
:1027A00006D1FC1D104B181CFFF77EFD031C237087
:1027B000FB1D1B78181CBD4603B090BDC005002052
:1027C00050050020502A0010602A0010702A0010C6
:1027D000802A0010902A0010A02A0010B02A0010B1
:1027E000C02A0010482A00106405002080B582B07D
:1027F00000AF78600A1CFB1C1A70FB1C1B78034A94
:102800009A407B685A60BD4602B080BD010001005D
:1028100080B582B000AF78600A1CFB1C1A707B6820
:102820005A6AFB1C1B78DA40131C01221340181C47
:10283000BD4602B080BDC04680B582B000AF7860B2
:102840007B681A687B681B7B101C191CFFF7CEFF86
:10285000BD4602B080BDC04680B582B000AF786092
:102860007B681A687B681B7B101C191CFFF7D0FF64
:10287000031C181CBD4602B080BDC04690B583B095
:1028800000AFFC1DFFF70EFF031C2370FB1D1B7820
:10289000002B00D0FEE72F4B181CFFF7DDFF031CB9
:1028A000DAB22D4B1A702C4B1B78002B16D100235B
:1028B0003B6002E03B6801333B603B68274A934240
:1028C000F8D9274B1B780133DAB2254B1A70244B09
:1028D0001B78022B02D9224B00221A70204B1B7846
:1028E000012B02D0022B2FD032E01D4B01221A7097
:1028F0001C4B181CFFF7B0FF031E012B0DD11A4B08
:1029000001225A70194B181CFFF796FF184A164BF4
:10291000101C191C0822FFF735FB164B181CFFF77B
:102920009BFF031E012B0ED10F4B02225A70124B3C
:10293000181CFFF781FF0E4A0B4B101C191C0822B4
:10294000FFF720FB04E003E0054B02221A70C046AB
:10295000A1E7C046702A0010C50500203E420F00C6
:10296000C4050020502A0010C8050020902A00103D
:1029700050050020602A0010A02A00100E4B70B5F0
:1029800000251E1C0D4CE41AA410A54204D0AB0077
:10299000F35898470135F8E7FFF7A6FA084B0025EA
:1029A0001E1C084CE41AA410A54204D0AB00F35836
:1029B00098470135F8E770BD9C0500209C05002074
:1029C0009C0500209C0500204618001046180010A9
:1029D00050180010501800107E1800107E180010BB
:1029E0007E1800107E1800105A180010661800108B
:1029F00072180010721800108025000000080801ED
:102A0000100000009C0000000100000000010440D4
:102A100002000000042A0010F82900103D210010D7
:102A200000000000000000000000000000000000A6
:102A3000000000000C2A0010000202040400000044
:102A4000000000000100000002000003010000007F
:102A50000002044018000000000000000000000018
:102A60000002044018000000000000000100000007
:102A70000002044008000000000000000200000006
:102A800000020440000000000000000003000000FD
:102A9000000404408000000001000000000000006D
:102AA000000404408000000001000000010000005C
:102AB000000404408000000001000000030000004A
:102AC000000404408000000001000000020000003B
:102AD00000000100000030030000010000000000C1
:102AE0002C4800470000000000000000000000002B
:102AF00000000000000000000000000000000000D6
:102B0000254800470000000000000000234800475F
:102B100023480047234800472348004723480047ED
:102B200023480047234800472348004723480047DD
:102B300023480047234800472348004723480047CD
:102B400023480047234800472348004723480047BD
:102B500023480047234800472348004723480047AD
:102B6000234800472348004723480047234800479D
:102B7000234800472348004723480047234800478D
:102B8000234800472348004723480047234800477D
:102B9000234800479D1000109D1000109D1000104C
:102BA0009D1000109D1000109D1000109D10001031
:102BB0009D1000109D1000109D1000109D10001021
:102BC0009D1000109D1000109D1000109D10001011
:102BD0009D1000109D1000109D1000109D10001001
:102BE0009D1000109D1000109D1000109D100010F1
:102BF0009D1000109D1000109D1000109D100010E1
:102C00009D1000109D1000109D1000109D100010D0
:102C10009D1000109D1000109D1000109D100010C0
:042C20009D100010F3
:102C240000020048182A0010A4050020000000003B
:102C34000A00000080F0FA0200D054850A00000067
:102C4400500000008C050020000204480100000030
:102C54005C05002000001AB70101000000D8B80587
:0C2C640001000000000004480000000017
:040000051000101DBA
:00000001FF
